{
  "contractName": "Publication",
  "abi": [
    {
      "constant": false,
      "inputs": [],
      "name": "rejectArticle",
      "outputs": [],
      "payable": false,
      "stateMutability": "nonpayable",
      "type": "function"
    },
    {
      "constant": false,
      "inputs": [],
      "name": "validateArticle",
      "outputs": [],
      "payable": false,
      "stateMutability": "nonpayable",
      "type": "function"
    },
    {
      "constant": true,
      "inputs": [],
      "name": "getSender",
      "outputs": [
        {
          "name": "",
          "type": "address"
        }
      ],
      "payable": false,
      "stateMutability": "view",
      "type": "function"
    },
    {
      "constant": true,
      "inputs": [],
      "name": "UpdateHashcontent",
      "outputs": [],
      "payable": false,
      "stateMutability": "view",
      "type": "function"
    },
    {
      "constant": true,
      "inputs": [],
      "name": "getValidatedVoteCount",
      "outputs": [
        {
          "name": "",
          "type": "uint256"
        }
      ],
      "payable": false,
      "stateMutability": "view",
      "type": "function"
    },
    {
      "constant": true,
      "inputs": [],
      "name": "getAuthor",
      "outputs": [
        {
          "name": "",
          "type": "address"
        }
      ],
      "payable": false,
      "stateMutability": "view",
      "type": "function"
    },
    {
      "constant": true,
      "inputs": [],
      "name": "validation",
      "outputs": [
        {
          "name": "validatedVoteCount",
          "type": "uint256"
        },
        {
          "name": "rejectedVoteCount",
          "type": "uint256"
        }
      ],
      "payable": false,
      "stateMutability": "view",
      "type": "function"
    },
    {
      "constant": true,
      "inputs": [],
      "name": "getCreationDate",
      "outputs": [
        {
          "name": "",
          "type": "uint256"
        }
      ],
      "payable": false,
      "stateMutability": "view",
      "type": "function"
    },
    {
      "constant": true,
      "inputs": [],
      "name": "state",
      "outputs": [
        {
          "name": "",
          "type": "uint8"
        }
      ],
      "payable": false,
      "stateMutability": "view",
      "type": "function"
    },
    {
      "constant": true,
      "inputs": [],
      "name": "getStatusArticle",
      "outputs": [
        {
          "name": "",
          "type": "uint8"
        }
      ],
      "payable": false,
      "stateMutability": "view",
      "type": "function"
    },
    {
      "constant": true,
      "inputs": [
        {
          "name": "",
          "type": "address"
        }
      ],
      "name": "reviewers",
      "outputs": [
        {
          "name": "voted",
          "type": "bool"
        },
        {
          "name": "vote",
          "type": "uint8"
        },
        {
          "name": "weight",
          "type": "uint256"
        }
      ],
      "payable": false,
      "stateMutability": "view",
      "type": "function"
    },
    {
      "inputs": [],
      "payable": false,
      "stateMutability": "nonpayable",
      "type": "constructor"
    }
  ],
  "bytecode": "0x6060604052341561000f57600080fd5b336000806101000a81548173ffffffffffffffffffffffffffffffffffffffff021916908373ffffffffffffffffffffffffffffffffffffffff1602179055506000600860006101000a81548160ff0219169083600281111561006e57fe5b021790555060006005600001819055506000600560010181905550426003819055506105d48061009f6000396000f3006060604052600436106100af576000357c0100000000000000000000000000000000000000000000000000000000900463ffffffff1680630444eb61146100b457806351a43244146100c95780635e01eb5a146100de5780638ca691a11461013357806391fd3bd214610148578063a5faa12514610171578063ae4b37e4146101c6578063b90c1dbb146101f6578063c19d93fb1461021f578063e3d86cab14610256578063f7cbb1b21461028d575b600080fd5b34156100bf57600080fd5b6100c76102f2565b005b34156100d457600080fd5b6100dc6103a7565b005b34156100e957600080fd5b6100f161045c565b604051808273ffffffffffffffffffffffffffffffffffffffff1673ffffffffffffffffffffffffffffffffffffffff16815260200191505060405180910390f35b341561013e57600080fd5b610146610464565b005b341561015357600080fd5b61015b6104e8565b6040518082815260200191505060405180910390f35b341561017c57600080fd5b6101846104f5565b604051808273ffffffffffffffffffffffffffffffffffffffff1673ffffffffffffffffffffffffffffffffffffffff16815260200191505060405180910390f35b34156101d157600080fd5b6101d961051e565b604051808381526020018281526020019250505060405180910390f35b341561020157600080fd5b610209610530565b6040518082815260200191505060405180910390f35b341561022a57600080fd5b61023261053a565b6040518082600281111561024257fe5b60ff16815260200191505060405180910390f35b341561026157600080fd5b61026961054d565b6040518082600281111561027957fe5b60ff16815260200191505060405180910390f35b341561029857600080fd5b6102c4600480803573ffffffffffffffffffffffffffffffffffffffff16906020019091905050610564565b60405180841515151581526020018360ff1660ff168152602001828152602001935050505060405180910390f35b6000600760003373ffffffffffffffffffffffffffffffffffffffff1673ffffffffffffffffffffffffffffffffffffffff16815260200190815260200160002090508060000160009054906101000a900460ff1615610351576103a4565b60018160000160006101000a81548160ff02191690831515021790555060008160000160016101000a81548160ff021916908360ff16021790555080600101546005600101600082825401925050819055505b50565b6000600760003373ffffffffffffffffffffffffffffffffffffffff1673ffffffffffffffffffffffffffffffffffffffff16815260200190815260200160002090508060000160009054906101000a900460ff161561040657610459565b60018160000160006101000a81548160ff02191690831515021790555060018160000160016101000a81548160ff021916908360ff16021790555080600101546005600001600082825401925050819055505b50565b600033905090565b6000809054906101000a900473ffffffffffffffffffffffffffffffffffffffff1673ffffffffffffffffffffffffffffffffffffffff163373ffffffffffffffffffffffffffffffffffffffff161480156104e55750600160028111156104c857fe5b600860009054906101000a900460ff1660028111156104e357fe5b145b50565b6000600560000154905090565b60008060009054906101000a900473ffffffffffffffffffffffffffffffffffffffff16905090565b60058060000154908060010154905082565b6000600354905090565b600860009054906101000a900460ff1681565b6000600860009054906101000a900460ff16905090565b60076020528060005260406000206000915090508060000160009054906101000a900460ff16908060000160019054906101000a900460ff169080600101549050835600a165627a7a72305820d1d58e7db237577bfa48eb755760736ab4202c30d49e160a4a8a2433250d11f80029",
  "source": "pragma solidity ^0.4.0;\ncontract Publication {\n\n    struct Reviewer {\n        bool voted;\n        uint8 vote;\n        uint weight;\n    }\n    //Validation is the sum of positive and negative vote of the article\n    struct Validation {\n        uint validatedVoteCount;\n        uint rejectedVoteCount;\n    }\n\n    address author;\n    // hashcontent of the original article\n    // hashcontent can be modified during the reviewing phase\n    address hashcontent;\n    bytes32  title;\n    uint creationDate;\n    uint validationDate;\n    \n    Validation public validation;\n    \n    //reviewers is the set of reviewers\n    mapping(address => Reviewer) public reviewers;\n    \n    //State is the state of the publication\n    enum State {submited, pending, validated}\n    State public state;\n    \n    /// Create a new publication with hashcontent of the document.\n    function Publication() public {\n        author = msg.sender;\n        //hashcontent = _hashcontent;\n        state = State.submited;\n        validation.validatedVoteCount = 0;\n        validation.rejectedVoteCount = 0;\n        creationDate = now;\n    }\n    \n    //During reviewing proccess, the author can update the article\n    function UpdateHashcontent() public view{\n        //user has to be the author and article status has to be \"pending\"\n        if (msg.sender == author && state == State.pending)\n        {\n            // TO DO calculate hashcontent of the updated document\n        }\n    }\n\n    /// Give $(reviewer) the right to vote on this publication\n    /// May only be called by $(chairperson).\n    function giveRightToReview(address reviewer) private{\n        if (msg.sender != author || reviewers[reviewer].voted) return;\n        reviewers[reviewer].weight = 1;\n    }\n\n    /// Give a single vote to validation $(validation). yes or no\n    function validateArticle() public{\n        Reviewer storage sender = reviewers[msg.sender];\n        if (sender.voted ) return;\n        sender.voted = true;\n        sender.vote = 1;\n        validation.validatedVoteCount += sender.weight;\n        \n    }\n    \n    function rejectArticle() public{\n        Reviewer storage sender = reviewers[msg.sender];\n        if (sender.voted) return;\n        sender.voted = true;\n        sender.vote = 0;\n        validation.rejectedVoteCount += sender.weight;\n    }\n    function getCreationDate() public constant returns(uint){\n        return creationDate;\n    }\n    \n    function getValidatedVoteCount() public constant returns(uint){\n        return validation.validatedVoteCount;\n    }\n    function getStatusArticle() public constant returns(State){\n        return state;\n    }\n    function getSender() public constant returns(address){\n        return msg.sender;\n    }\n    function getAuthor() public constant returns(address){\n        return author;\n    }\n}\n\n\n",
  "sourcePath": "/home/neberle/workspace/storage_smart_contract_ospr/contracts/Publication.sol",
  "compiler": {
    "name": "solc",
    "version": "0.4.18+commit.9cf6e910.Emscripten.clang"
  },
  "schemaVersion": "1.0.1",
  "updatedAt": "2017-11-23T19:47:48.102Z"
}