{
  "contractName": "Publisher",
  "abi": [
    {
      "constant": false,
      "inputs": [
        {
          "name": "publicationID",
          "type": "uint256"
        }
      ],
      "name": "rejectArticle",
      "outputs": [],
      "payable": false,
      "stateMutability": "nonpayable",
      "type": "function"
    },
    {
      "constant": false,
      "inputs": [],
      "name": "submitArticle",
      "outputs": [
        {
          "name": "publicationID",
          "type": "uint256"
        }
      ],
      "payable": false,
      "stateMutability": "nonpayable",
      "type": "function"
    },
    {
      "constant": true,
      "inputs": [
        {
          "name": "publicationID",
          "type": "uint256"
        }
      ],
      "name": "getStatusArticle",
      "outputs": [
        {
          "name": "",
          "type": "uint8"
        }
      ],
      "payable": false,
      "stateMutability": "view",
      "type": "function"
    },
    {
      "constant": true,
      "inputs": [
        {
          "name": "publicationID",
          "type": "uint256"
        }
      ],
      "name": "getValidatedVoteCount",
      "outputs": [
        {
          "name": "",
          "type": "uint256"
        }
      ],
      "payable": false,
      "stateMutability": "view",
      "type": "function"
    },
    {
      "constant": false,
      "inputs": [
        {
          "name": "publicationID",
          "type": "uint256"
        }
      ],
      "name": "validateArticle",
      "outputs": [],
      "payable": false,
      "stateMutability": "nonpayable",
      "type": "function"
    }
  ],
  "bytecode": "0x6060604052341561000f57600080fd5b6106df8061001e6000396000f30060606040526004361061006d576000357c0100000000000000000000000000000000000000000000000000000000900463ffffffff168063283a485e14610072578063517c92c2146100955780635f59ef53146100be578063d4387b6d14610103578063dc19628e1461013a575b600080fd5b341561007d57600080fd5b610093600480803590602001909190505061015d565b005b34156100a057600080fd5b6100a8610335565b6040518082815260200191505060405180910390f35b34156100c957600080fd5b6100df6004808035906020019091905050610450565b604051808260028111156100ef57fe5b60ff16815260200191505060405180910390f35b341561010e57600080fd5b6101246004808035906020019091905050610482565b6040518082815260200191505060405180910390f35b341561014557600080fd5b61015b60048080359060200190919050506104a7565b005b6000806001600084815260200190815260200160002091508160060160003373ffffffffffffffffffffffffffffffffffffffff1673ffffffffffffffffffffffffffffffffffffffff16815260200190815260200160002090508060000160149054906101000a900460ff168061022457503373ffffffffffffffffffffffffffffffffffffffff168260000160009054906101000a900473ffffffffffffffffffffffffffffffffffffffff1673ffffffffffffffffffffffffffffffffffffffff16145b1561022e57610330565b60408051908101604052803373ffffffffffffffffffffffffffffffffffffffff168152602001600115158152508260060160003373ffffffffffffffffffffffffffffffffffffffff1673ffffffffffffffffffffffffffffffffffffffff16815260200190815260200160002060008201518160000160006101000a81548173ffffffffffffffffffffffffffffffffffffffff021916908373ffffffffffffffffffffffffffffffffffffffff16021790555060208201518160000160146101000a81548160ff021916908315150217905550905050816002016000815480929190600101919050555081600501600081548092919060010191905055505b505050565b600080600081548092919060010191905055905060c0604051908101604052803373ffffffffffffffffffffffffffffffffffffffff168152602001428152602001600081526020016000600281111561038b57fe5b81526020016000815260200160008152506001600083815260200190815260200160002060008201518160000160006101000a81548173ffffffffffffffffffffffffffffffffffffffff021916908373ffffffffffffffffffffffffffffffffffffffff160217905550602082015181600101556040820151816002015560608201518160030160006101000a81548160ff0219169083600281111561042e57fe5b02179055506080820151816004015560a0820151816005015590505080905090565b6000806001600084815260200190815260200160002090508060030160009054906101000a900460ff16915050919050565b6000806001600084815260200190815260200160002090508060040154915050919050565b6000806001600084815260200190815260200160002091508160060160003373ffffffffffffffffffffffffffffffffffffffff1673ffffffffffffffffffffffffffffffffffffffff16815260200190815260200160002090508060000160149054906101000a900460ff168061056e57503373ffffffffffffffffffffffffffffffffffffffff168260000160009054906101000a900473ffffffffffffffffffffffffffffffffffffffff1673ffffffffffffffffffffffffffffffffffffffff16145b15610578576106ae565b60408051908101604052803373ffffffffffffffffffffffffffffffffffffffff168152602001600115158152508260060160003373ffffffffffffffffffffffffffffffffffffffff1673ffffffffffffffffffffffffffffffffffffffff16815260200190815260200160002060008201518160000160006101000a81548173ffffffffffffffffffffffffffffffffffffffff021916908373ffffffffffffffffffffffffffffffffffffffff16021790555060208201518160000160146101000a81548160ff021916908315150217905550905050816002016000815480929190600101919050555081600401600081548092919060010191905055506003826004015411156106ad5760028260030160006101000a81548160ff021916908360028111156106a757fe5b02179055505b5b5050505600a165627a7a72305820ffcd1c78205caf84dfee952f6cbe2ccffe520b147e12754111a6d6192f7bb6b60029",
  "source": "pragma solidity ^0.4.0;\ncontract Publisher{\n\n    enum State {submited, pending, validated}\n\n    struct Reviewer {\n    \taddress addr;\n      bool voted;\n    }\n    //Validation is the sum of positive and negative vote of the article\n    struct Publication {\n      address author;\n\t    uint creationDate;\n\t    uint numReviewers;\n     \tState state;\n\t    uint validatedVoteCount;\n      uint rejectedVoteCount;\n\n\t    mapping(address => Reviewer) reviewers;\n\t   }\n\n\n    uint numPublications;\n    mapping(uint => Publication) publications;\n\n    /// Create a new publication with hashcontent of the document.\n    function submitArticle() public returns(uint publicationID){\n      publicationID = numPublications ++;\n      publications[publicationID] = Publication(msg.sender,now,0,State.submited,0,0 );\n      return publicationID;\n    }\n\n\n    function validateArticle(uint publicationID) public{\n      Publication storage paper = publications[publicationID];\n\t    Reviewer storage sender = paper.reviewers[msg.sender];\n      if (sender.voted || paper.author==msg.sender ) return;\n\t    paper.reviewers[msg.sender] = Reviewer({addr: msg.sender,voted:true});\n      paper.numReviewers++;\n\t    paper.validatedVoteCount++;\n\n\t    if(paper.validatedVoteCount>3){\n        paper.state = State.validated;\n\t    }\n    }\n\n    function rejectArticle(uint publicationID) public{\n      Publication storage paper = publications[publicationID];\n\t    Reviewer storage sender = paper.reviewers[msg.sender];\n      if (sender.voted || paper.author==msg.sender ) return;\n\t    paper.reviewers[msg.sender] = Reviewer({addr: msg.sender,voted:true});\n      paper.numReviewers++;\n\t    paper.rejectedVoteCount++;\n\n    }\n\n    function getValidatedVoteCount(uint publicationID) public constant returns(uint){\n      Publication storage paper = publications[publicationID];\n      return paper.validatedVoteCount;\n    }\n    function getStatusArticle(uint publicationID) public constant returns(State){\n      Publication storage paper = publications[publicationID];\n      return paper.state;\n    }\n\n}\n",
  "sourcePath": "/home/neberle/workspace/exemple_git/ospr_smartcontract/contracts/Publisher.sol",
  "compiler": {
    "name": "solc",
    "version": "0.4.18+commit.9cf6e910.Emscripten.clang"
  },
  "schemaVersion": "1.0.1",
  "updatedAt": "2017-11-27T08:40:46.881Z"
}