{
  "contractName": "Publisher",
  "abi": [
    {
      "constant": false,
      "inputs": [
        {
          "name": "publicationID",
          "type": "uint256"
        }
      ],
      "name": "rejectArticle",
      "outputs": [],
      "payable": false,
      "stateMutability": "nonpayable",
      "type": "function"
    },
    {
      "constant": false,
      "inputs": [],
      "name": "submitArticle",
      "outputs": [
        {
          "name": "publicationID",
          "type": "uint256"
        }
      ],
      "payable": false,
      "stateMutability": "nonpayable",
      "type": "function"
    },
    {
      "constant": true,
      "inputs": [
        {
          "name": "publicationID",
          "type": "uint256"
        }
      ],
      "name": "getStatusArticle",
      "outputs": [
        {
          "name": "",
          "type": "uint8"
        }
      ],
      "payable": false,
      "stateMutability": "view",
      "type": "function"
    },
    {
      "constant": false,
      "inputs": [
        {
          "name": "publicationID",
          "type": "uint256"
        }
      ],
      "name": "getNumberOfReviewers",
      "outputs": [
        {
          "name": "",
          "type": "uint256"
        }
      ],
      "payable": false,
      "stateMutability": "nonpayable",
      "type": "function"
    },
    {
      "constant": true,
      "inputs": [],
      "name": "getNumSubmitedArticles",
      "outputs": [
        {
          "name": "",
          "type": "uint256"
        }
      ],
      "payable": false,
      "stateMutability": "view",
      "type": "function"
    },
    {
      "constant": true,
      "inputs": [
        {
          "name": "publicationID",
          "type": "uint256"
        }
      ],
      "name": "getAuthorArticle",
      "outputs": [
        {
          "name": "",
          "type": "address"
        }
      ],
      "payable": false,
      "stateMutability": "view",
      "type": "function"
    },
    {
      "constant": true,
      "inputs": [
        {
          "name": "publicationID",
          "type": "uint256"
        }
      ],
      "name": "getValidatedVoteCount",
      "outputs": [
        {
          "name": "",
          "type": "uint256"
        }
      ],
      "payable": false,
      "stateMutability": "view",
      "type": "function"
    },
    {
      "constant": false,
      "inputs": [
        {
          "name": "publicationID",
          "type": "uint256"
        }
      ],
      "name": "validateArticle",
      "outputs": [],
      "payable": false,
      "stateMutability": "nonpayable",
      "type": "function"
    }
  ],
  "bytecode": "0x6060604052341561000f57600080fd5b6108368061001e6000396000f30060606040526004361061008e576000357c0100000000000000000000000000000000000000000000000000000000900463ffffffff168063283a485e14610093578063517c92c2146100b65780635f59ef53146100df5780636800c9a9146101245780637000f7651461015b5780637c12b91e14610184578063d4387b6d146101e7578063dc19628e1461021e575b600080fd5b341561009e57600080fd5b6100b46004808035906020019091905050610241565b005b34156100c157600080fd5b6100c9610419565b6040518082815260200191505060405180910390f35b34156100ea57600080fd5b6101006004808035906020019091905050610534565b6040518082600281111561011057fe5b60ff16815260200191505060405180910390f35b341561012f57600080fd5b6101456004808035906020019091905050610566565b6040518082815260200191505060405180910390f35b341561016657600080fd5b61016e61058b565b6040518082815260200191505060405180910390f35b341561018f57600080fd5b6101a56004808035906020019091905050610594565b604051808273ffffffffffffffffffffffffffffffffffffffff1673ffffffffffffffffffffffffffffffffffffffff16815260200191505060405180910390f35b34156101f257600080fd5b61020860048080359060200190919050506105d9565b6040518082815260200191505060405180910390f35b341561022957600080fd5b61023f60048080359060200190919050506105fe565b005b6000806001600084815260200190815260200160002091508160060160003373ffffffffffffffffffffffffffffffffffffffff1673ffffffffffffffffffffffffffffffffffffffff16815260200190815260200160002090508060000160149054906101000a900460ff168061030857503373ffffffffffffffffffffffffffffffffffffffff168260000160009054906101000a900473ffffffffffffffffffffffffffffffffffffffff1673ffffffffffffffffffffffffffffffffffffffff16145b1561031257610414565b60408051908101604052803373ffffffffffffffffffffffffffffffffffffffff168152602001600115158152508260060160003373ffffffffffffffffffffffffffffffffffffffff1673ffffffffffffffffffffffffffffffffffffffff16815260200190815260200160002060008201518160000160006101000a81548173ffffffffffffffffffffffffffffffffffffffff021916908373ffffffffffffffffffffffffffffffffffffffff16021790555060208201518160000160146101000a81548160ff021916908315150217905550905050816002016000815480929190600101919050555081600501600081548092919060010191905055505b505050565b600080600081548092919060010191905055905060c0604051908101604052803373ffffffffffffffffffffffffffffffffffffffff168152602001428152602001600081526020016000600281111561046f57fe5b81526020016000815260200160008152506001600083815260200190815260200160002060008201518160000160006101000a81548173ffffffffffffffffffffffffffffffffffffffff021916908373ffffffffffffffffffffffffffffffffffffffff160217905550602082015181600101556040820151816002015560608201518160030160006101000a81548160ff0219169083600281111561051257fe5b02179055506080820151816004015560a0820151816005015590505080905090565b6000806001600084815260200190815260200160002090508060030160009054906101000a900460ff16915050919050565b6000806001600084815260200190815260200160002090508060020154915050919050565b60008054905090565b6000806001600084815260200190815260200160002090508060000160009054906101000a900473ffffffffffffffffffffffffffffffffffffffff16915050919050565b6000806001600084815260200190815260200160002090508060040154915050919050565b6000806001600084815260200190815260200160002091508160060160003373ffffffffffffffffffffffffffffffffffffffff1673ffffffffffffffffffffffffffffffffffffffff16815260200190815260200160002090508060000160149054906101000a900460ff16806106c557503373ffffffffffffffffffffffffffffffffffffffff168260000160009054906101000a900473ffffffffffffffffffffffffffffffffffffffff1673ffffffffffffffffffffffffffffffffffffffff16145b156106cf57610805565b60408051908101604052803373ffffffffffffffffffffffffffffffffffffffff168152602001600115158152508260060160003373ffffffffffffffffffffffffffffffffffffffff1673ffffffffffffffffffffffffffffffffffffffff16815260200190815260200160002060008201518160000160006101000a81548173ffffffffffffffffffffffffffffffffffffffff021916908373ffffffffffffffffffffffffffffffffffffffff16021790555060208201518160000160146101000a81548160ff021916908315150217905550905050816002016000815480929190600101919050555081600401600081548092919060010191905055506003826004015411156108045760028260030160006101000a81548160ff021916908360028111156107fe57fe5b02179055505b5b5050505600a165627a7a72305820519db74b3fb36641e2796700600ead29484ddaf2d549a02d11ff28f0e061b0e50029",
  "source": "pragma solidity ^0.4.0;\ncontract Publisher{\n\n    enum State {submited, pending, validated}\n\n    struct Reviewer {\n    \taddress addr;\n      bool voted;\n    }\n    //Validation is the sum of positive and negative vote of the article\n    struct Publication {\n      address author;\n\t    uint creationDate;\n\t    uint numReviewers;\n     \tState state;\n\t    uint validatedVoteCount;\n      uint rejectedVoteCount;\n\n\t    mapping(address => Reviewer) reviewers;\n\t  }\n\n\n    uint numPublications;\n    mapping(uint => Publication) publications;\n\n    /// Create a new publication with hashcontent of the document.\n    function submitArticle() public returns(uint publicationID){\n      publicationID = numPublications ++;\n      publications[publicationID] = Publication(msg.sender,now,0,State.submited,0,0 );\n      return publicationID;\n    }\n\n    function getNumSubmitedArticles() public constant returns(uint){\n      return numPublications;\n    }\n\n    function validateArticle(uint publicationID) public{\n      Publication storage paper = publications[publicationID];\n\t    Reviewer storage sender = paper.reviewers[msg.sender];\n      if (sender.voted || paper.author==msg.sender ) return;\n\t    paper.reviewers[msg.sender] = Reviewer({addr: msg.sender,voted:true});\n      paper.numReviewers++;\n\t    paper.validatedVoteCount++;\n\n\t    if(paper.validatedVoteCount>3){\n        paper.state = State.validated;\n\t    }\n    }\n\n    function rejectArticle(uint publicationID) public{\n      Publication storage paper = publications[publicationID];\n\t    Reviewer storage sender = paper.reviewers[msg.sender];\n      if (sender.voted || paper.author==msg.sender ) return;\n\t    paper.reviewers[msg.sender] = Reviewer({addr: msg.sender,voted:true});\n      paper.numReviewers++;\n\t    paper.rejectedVoteCount++;\n\n    }\n\n    function getValidatedVoteCount(uint publicationID) public constant returns(uint){\n      Publication storage paper = publications[publicationID];\n      return paper.validatedVoteCount;\n    }\n\n    function getStatusArticle(uint publicationID) public constant returns(State){\n      Publication storage paper = publications[publicationID];\n      return paper.state;\n    }\n\n    function getAuthorArticle(uint publicationID) public constant returns(address){\n      Publication storage paper = publications[publicationID];\n      return paper.author;\n    }\n    function getNumberOfReviewers(uint publicationID) public returns(uint){\n      Publication storage paper = publications[publicationID];\n      return paper.numReviewers;\n    }\n}\n",
  "sourcePath": "/home/neberle/workspace/exemple_git/ospr_smartcontract/contracts/Publisher.sol",
  "compiler": {
    "name": "solc",
    "version": "0.4.18+commit.9cf6e910.Emscripten.clang"
  },
  "schemaVersion": "1.0.1",
  "updatedAt": "2017-11-28T22:36:33.456Z"
}