{
  "contractName": "Publisher",
  "abi": [
    {
      "constant": false,
      "inputs": [],
      "name": "createArticle",
      "outputs": [
        {
          "name": "publicationID",
          "type": "uint256"
        }
      ],
      "payable": false,
      "stateMutability": "nonpayable",
      "type": "function"
    },
    {
      "constant": false,
      "inputs": [
        {
          "name": "publicationID",
          "type": "uint256"
        }
      ],
      "name": "rejectArticle",
      "outputs": [],
      "payable": false,
      "stateMutability": "nonpayable",
      "type": "function"
    },
    {
      "constant": false,
      "inputs": [
        {
          "name": "publicationID",
          "type": "uint256"
        }
      ],
      "name": "submitArticle",
      "outputs": [],
      "payable": false,
      "stateMutability": "nonpayable",
      "type": "function"
    },
    {
      "constant": true,
      "inputs": [
        {
          "name": "publicationID",
          "type": "uint256"
        }
      ],
      "name": "getStatusArticle",
      "outputs": [
        {
          "name": "",
          "type": "uint8"
        }
      ],
      "payable": false,
      "stateMutability": "view",
      "type": "function"
    },
    {
      "constant": false,
      "inputs": [
        {
          "name": "publicationID",
          "type": "uint256"
        }
      ],
      "name": "getNumberOfReviewers",
      "outputs": [
        {
          "name": "",
          "type": "uint256"
        }
      ],
      "payable": false,
      "stateMutability": "nonpayable",
      "type": "function"
    },
    {
      "constant": true,
      "inputs": [],
      "name": "getNumSubmitedArticles",
      "outputs": [
        {
          "name": "",
          "type": "uint256"
        }
      ],
      "payable": false,
      "stateMutability": "view",
      "type": "function"
    },
    {
      "constant": true,
      "inputs": [
        {
          "name": "publicationID",
          "type": "uint256"
        }
      ],
      "name": "getAuthorArticle",
      "outputs": [
        {
          "name": "",
          "type": "address"
        }
      ],
      "payable": false,
      "stateMutability": "view",
      "type": "function"
    },
    {
      "constant": true,
      "inputs": [
        {
          "name": "publicationID",
          "type": "uint256"
        }
      ],
      "name": "getValidatedVoteCount",
      "outputs": [
        {
          "name": "",
          "type": "uint256"
        }
      ],
      "payable": false,
      "stateMutability": "view",
      "type": "function"
    },
    {
      "constant": false,
      "inputs": [
        {
          "name": "publicationID",
          "type": "uint256"
        }
      ],
      "name": "validateArticle",
      "outputs": [
        {
          "name": "",
          "type": "uint256"
        }
      ],
      "payable": false,
      "stateMutability": "nonpayable",
      "type": "function"
    }
  ],
  "bytecode": "0x6060604052341561000f57600080fd5b6109298061001e6000396000f300606060405260043610610099576000357c0100000000000000000000000000000000000000000000000000000000900463ffffffff168063241e2c3d1461009e578063283a485e146100c75780635acb0061146100ea5780635f59ef531461010d5780636800c9a9146101525780637000f765146101895780637c12b91e146101b2578063d4387b6d14610215578063dc19628e1461024c575b600080fd5b34156100a957600080fd5b6100b1610283565b6040518082815260200191505060405180910390f35b34156100d257600080fd5b6100e8600480803590602001909190505061039e565b005b34156100f557600080fd5b61010b6004808035906020019091905050610576565b005b341561011857600080fd5b61012e6004808035906020019091905050610615565b6040518082600381111561013e57fe5b60ff16815260200191505060405180910390f35b341561015d57600080fd5b6101736004808035906020019091905050610647565b6040518082815260200191505060405180910390f35b341561019457600080fd5b61019c61066c565b6040518082815260200191505060405180910390f35b34156101bd57600080fd5b6101d36004808035906020019091905050610675565b604051808273ffffffffffffffffffffffffffffffffffffffff1673ffffffffffffffffffffffffffffffffffffffff16815260200191505060405180910390f35b341561022057600080fd5b61023660048080359060200190919050506106ba565b6040518082815260200191505060405180910390f35b341561025757600080fd5b61026d60048080359060200190919050506106df565b6040518082815260200191505060405180910390f35b600080600081548092919060010191905055905060c0604051908101604052803373ffffffffffffffffffffffffffffffffffffffff16815260200142815260200160008152602001600060038111156102d957fe5b81526020016000815260200160008152506001600083815260200190815260200160002060008201518160000160006101000a81548173ffffffffffffffffffffffffffffffffffffffff021916908373ffffffffffffffffffffffffffffffffffffffff160217905550602082015181600101556040820151816002015560608201518160030160006101000a81548160ff0219169083600381111561037c57fe5b02179055506080820151816004015560a0820151816005015590505080905090565b6000806001600084815260200190815260200160002091508160060160003373ffffffffffffffffffffffffffffffffffffffff1673ffffffffffffffffffffffffffffffffffffffff16815260200190815260200160002090508060000160149054906101000a900460ff168061046557503373ffffffffffffffffffffffffffffffffffffffff168260000160009054906101000a900473ffffffffffffffffffffffffffffffffffffffff1673ffffffffffffffffffffffffffffffffffffffff16145b1561046f57610571565b60408051908101604052803373ffffffffffffffffffffffffffffffffffffffff168152602001600115158152508260060160003373ffffffffffffffffffffffffffffffffffffffff1673ffffffffffffffffffffffffffffffffffffffff16815260200190815260200160002060008201518160000160006101000a81548173ffffffffffffffffffffffffffffffffffffffff021916908373ffffffffffffffffffffffffffffffffffffffff16021790555060208201518160000160146101000a81548160ff021916908315150217905550905050816002016000815480929190600101919050555081600501600081548092919060010191905055505b505050565b60006001600083815260200190815260200160002090503373ffffffffffffffffffffffffffffffffffffffff168160000160009054906101000a900473ffffffffffffffffffffffffffffffffffffffff1673ffffffffffffffffffffffffffffffffffffffff161415156105eb57600080fd5b60018160030160006101000a81548160ff0219169083600381111561060c57fe5b02179055505050565b6000806001600084815260200190815260200160002090508060030160009054906101000a900460ff16915050919050565b6000806001600084815260200190815260200160002090508060020154915050919050565b60008054905090565b6000806001600084815260200190815260200160002090508060000160009054906101000a900473ffffffffffffffffffffffffffffffffffffffff16915050919050565b6000806001600084815260200190815260200160002090508060040154915050919050565b60008060006001600085815260200190815260200160002091508160060160003373ffffffffffffffffffffffffffffffffffffffff1673ffffffffffffffffffffffffffffffffffffffff1681526020019081526020016000209050600015158160000160149054906101000a900460ff1615151480156107b157503373ffffffffffffffffffffffffffffffffffffffff168260000160009054906101000a900473ffffffffffffffffffffffffffffffffffffffff1673ffffffffffffffffffffffffffffffffffffffff1614155b15156107bc57600080fd5b60408051908101604052803373ffffffffffffffffffffffffffffffffffffffff168152602001600115158152508260060160003373ffffffffffffffffffffffffffffffffffffffff1673ffffffffffffffffffffffffffffffffffffffff16815260200190815260200160002060008201518160000160006101000a81548173ffffffffffffffffffffffffffffffffffffffff021916908373ffffffffffffffffffffffffffffffffffffffff16021790555060208201518160000160146101000a81548160ff02191690831515021790555090505081600201600081548092919060010191905055508160040160008154809291906001019190505550600382600401541015156108f25760038260030160006101000a81548160ff021916908360038111156108ec57fe5b02179055505b6001925050509190505600a165627a7a723058209df2697a42f0fe5296d350ba9c511b746f11946725b19f1aadf00070b5c7b9200029",
  "source": "pragma solidity ^0.4.0;\ncontract Publisher{\n\n    enum State {edited,submited,pending, validated}\n\n    struct Reviewer {\n    \taddress addr;\n      bool voted;\n    }\n    //Validation is the sum of positive and negative vote of the article\n    struct Publication {\n      address author;\n\t    uint creationDate;\n\t    uint numReviewers;\n     \tState state;\n\t    uint validatedVoteCount;\n      uint rejectedVoteCount;\n\t    mapping(address => Reviewer) reviewers;\n\t  }\n\n    uint numPublications;\n    mapping(uint => Publication) publications;\n\n    /// Create a new publication with hashcontent of the document.\n    function createArticle() public returns(uint publicationID){\n      publicationID = numPublications ++;\n      publications[publicationID] = Publication(msg.sender,now,0,State.edited,0,0 );\n      return publicationID;\n    }\n\n\n    function submitArticle(uint publicationID) public{\n      Publication storage paper = publications[publicationID];\n      require(paper.author==msg.sender);\n      paper.state = State.submited;\n    }\n\n    function getNumSubmitedArticles() public constant returns(uint){\n      return numPublications;\n    }\n\n    function validateArticle(uint publicationID) public returns(uint){\n      Publication storage paper = publications[publicationID];\n\t    Reviewer storage sender = paper.reviewers[msg.sender];\n      require(sender.voted == false && paper.author!=msg.sender );\n\t    paper.reviewers[msg.sender] = Reviewer({addr: msg.sender,voted:true});\n      paper.numReviewers++;\n\t    paper.validatedVoteCount++;\n\n\t    if(paper.validatedVoteCount>=3){\n        paper.state = State.validated;\n\t    }\n      return 1;\n    }\n\n    function rejectArticle(uint publicationID) public{\n      Publication storage paper = publications[publicationID];\n\t    Reviewer storage sender = paper.reviewers[msg.sender];\n      if (sender.voted || paper.author==msg.sender ) return;\n\t    paper.reviewers[msg.sender] = Reviewer({addr: msg.sender,voted:true});\n      paper.numReviewers++;\n\t    paper.rejectedVoteCount++;\n\n    }\n\n    function getValidatedVoteCount(uint publicationID) public constant returns(uint){\n      Publication storage paper = publications[publicationID];\n      return paper.validatedVoteCount;\n    }\n\n    function getStatusArticle(uint publicationID) public constant returns(State){\n      Publication storage paper = publications[publicationID];\n      return paper.state;\n    }\n\n    function getAuthorArticle(uint publicationID) public constant returns(address){\n      Publication storage paper = publications[publicationID];\n      return paper.author;\n    }\n    function getNumberOfReviewers(uint publicationID) public returns(uint){\n      Publication storage paper = publications[publicationID];\n      return paper.numReviewers;\n    }\n}\n",
  "sourcePath": "/home/neberle/workspace/exemple_git/ospr_smartcontract/contracts/Publisher.sol",
  "compiler": {
    "name": "solc",
    "version": "0.4.18+commit.9cf6e910.Emscripten.clang"
  },
  "schemaVersion": "1.0.1",
  "updatedAt": "2017-11-30T17:22:58.793Z"
}