{
  "contractName": "Publisher",
  "abi": [
    {
      "constant": false,
      "inputs": [
        {
          "name": "publicationID",
          "type": "uint256"
        }
      ],
      "name": "rejectArticle",
      "outputs": [],
      "payable": false,
      "stateMutability": "nonpayable",
      "type": "function"
    },
    {
      "constant": false,
      "inputs": [],
      "name": "submitArticle",
      "outputs": [
        {
          "name": "publicationID",
          "type": "uint256"
        }
      ],
      "payable": false,
      "stateMutability": "nonpayable",
      "type": "function"
    },
    {
      "constant": true,
      "inputs": [
        {
          "name": "publicationID",
          "type": "uint256"
        }
      ],
      "name": "getStatusArticle",
      "outputs": [
        {
          "name": "",
          "type": "uint8"
        }
      ],
      "payable": false,
      "stateMutability": "view",
      "type": "function"
    },
    {
      "constant": true,
      "inputs": [],
      "name": "getNumSubmitedArticles",
      "outputs": [
        {
          "name": "",
          "type": "uint256"
        }
      ],
      "payable": false,
      "stateMutability": "view",
      "type": "function"
    },
    {
      "constant": true,
      "inputs": [
        {
          "name": "publicationID",
          "type": "uint256"
        }
      ],
      "name": "getValidatedVoteCount",
      "outputs": [
        {
          "name": "",
          "type": "uint256"
        }
      ],
      "payable": false,
      "stateMutability": "view",
      "type": "function"
    },
    {
      "constant": false,
      "inputs": [
        {
          "name": "publicationID",
          "type": "uint256"
        }
      ],
      "name": "validateArticle",
      "outputs": [],
      "payable": false,
      "stateMutability": "nonpayable",
      "type": "function"
    }
  ],
  "bytecode": "0x6060604052341561000f57600080fd5b61071c8061001e6000396000f300606060405260043610610078576000357c0100000000000000000000000000000000000000000000000000000000900463ffffffff168063283a485e1461007d578063517c92c2146100a05780635f59ef53146100c95780637000f7651461010e578063d4387b6d14610137578063dc19628e1461016e575b600080fd5b341561008857600080fd5b61009e6004808035906020019091905050610191565b005b34156100ab57600080fd5b6100b3610369565b6040518082815260200191505060405180910390f35b34156100d457600080fd5b6100ea6004808035906020019091905050610484565b604051808260028111156100fa57fe5b60ff16815260200191505060405180910390f35b341561011957600080fd5b6101216104b6565b6040518082815260200191505060405180910390f35b341561014257600080fd5b61015860048080359060200190919050506104bf565b6040518082815260200191505060405180910390f35b341561017957600080fd5b61018f60048080359060200190919050506104e4565b005b6000806001600084815260200190815260200160002091508160060160003373ffffffffffffffffffffffffffffffffffffffff1673ffffffffffffffffffffffffffffffffffffffff16815260200190815260200160002090508060000160149054906101000a900460ff168061025857503373ffffffffffffffffffffffffffffffffffffffff168260000160009054906101000a900473ffffffffffffffffffffffffffffffffffffffff1673ffffffffffffffffffffffffffffffffffffffff16145b1561026257610364565b60408051908101604052803373ffffffffffffffffffffffffffffffffffffffff168152602001600115158152508260060160003373ffffffffffffffffffffffffffffffffffffffff1673ffffffffffffffffffffffffffffffffffffffff16815260200190815260200160002060008201518160000160006101000a81548173ffffffffffffffffffffffffffffffffffffffff021916908373ffffffffffffffffffffffffffffffffffffffff16021790555060208201518160000160146101000a81548160ff021916908315150217905550905050816002016000815480929190600101919050555081600501600081548092919060010191905055505b505050565b600080600081548092919060010191905055905060c0604051908101604052803373ffffffffffffffffffffffffffffffffffffffff16815260200142815260200160008152602001600060028111156103bf57fe5b81526020016000815260200160008152506001600083815260200190815260200160002060008201518160000160006101000a81548173ffffffffffffffffffffffffffffffffffffffff021916908373ffffffffffffffffffffffffffffffffffffffff160217905550602082015181600101556040820151816002015560608201518160030160006101000a81548160ff0219169083600281111561046257fe5b02179055506080820151816004015560a0820151816005015590505080905090565b6000806001600084815260200190815260200160002090508060030160009054906101000a900460ff16915050919050565b60008054905090565b6000806001600084815260200190815260200160002090508060040154915050919050565b6000806001600084815260200190815260200160002091508160060160003373ffffffffffffffffffffffffffffffffffffffff1673ffffffffffffffffffffffffffffffffffffffff16815260200190815260200160002090508060000160149054906101000a900460ff16806105ab57503373ffffffffffffffffffffffffffffffffffffffff168260000160009054906101000a900473ffffffffffffffffffffffffffffffffffffffff1673ffffffffffffffffffffffffffffffffffffffff16145b156105b5576106eb565b60408051908101604052803373ffffffffffffffffffffffffffffffffffffffff168152602001600115158152508260060160003373ffffffffffffffffffffffffffffffffffffffff1673ffffffffffffffffffffffffffffffffffffffff16815260200190815260200160002060008201518160000160006101000a81548173ffffffffffffffffffffffffffffffffffffffff021916908373ffffffffffffffffffffffffffffffffffffffff16021790555060208201518160000160146101000a81548160ff021916908315150217905550905050816002016000815480929190600101919050555081600401600081548092919060010191905055506003826004015411156106ea5760028260030160006101000a81548160ff021916908360028111156106e457fe5b02179055505b5b5050505600a165627a7a72305820357c354caf55a9d442797a9448f24c28c89842dfcc0a889aae47293dd0bd4b360029",
  "source": "pragma solidity ^0.4.0;\ncontract Publisher{\n\n    enum State {submited, pending, validated}\n\n    struct Reviewer {\n    \taddress addr;\n      bool voted;\n    }\n    //Validation is the sum of positive and negative vote of the article\n    struct Publication {\n      address author;\n\t    uint creationDate;\n\t    uint numReviewers;\n     \tState state;\n\t    uint validatedVoteCount;\n      uint rejectedVoteCount;\n\n\t    mapping(address => Reviewer) reviewers;\n\t  }\n\n\n    uint numPublications;\n    mapping(uint => Publication) publications;\n\n    /// Create a new publication with hashcontent of the document.\n    function submitArticle() public returns(uint publicationID){\n      publicationID = numPublications ++;\n      publications[publicationID] = Publication(msg.sender,now,0,State.submited,0,0 );\n      return publicationID;\n    }\n\n    function getNumSubmitedArticles() public constant returns(uint){\n      return numPublications;\n    }\n\n    function validateArticle(uint publicationID) public{\n      Publication storage paper = publications[publicationID];\n\t    Reviewer storage sender = paper.reviewers[msg.sender];\n      if (sender.voted || paper.author==msg.sender ) return;\n\t    paper.reviewers[msg.sender] = Reviewer({addr: msg.sender,voted:true});\n      paper.numReviewers++;\n\t    paper.validatedVoteCount++;\n\n\t    if(paper.validatedVoteCount>3){\n        paper.state = State.validated;\n\t    }\n    }\n\n    function rejectArticle(uint publicationID) public{\n      Publication storage paper = publications[publicationID];\n\t    Reviewer storage sender = paper.reviewers[msg.sender];\n      if (sender.voted || paper.author==msg.sender ) return;\n\t    paper.reviewers[msg.sender] = Reviewer({addr: msg.sender,voted:true});\n      paper.numReviewers++;\n\t    paper.rejectedVoteCount++;\n\n    }\n\n    function getValidatedVoteCount(uint publicationID) public constant returns(uint){\n      Publication storage paper = publications[publicationID];\n      return paper.validatedVoteCount;\n    }\n    function getStatusArticle(uint publicationID) public constant returns(State){\n      Publication storage paper = publications[publicationID];\n      return paper.state;\n    }\n\n}\n",
  "sourcePath": "/home/neberle/workspace/exemple_git/ospr_smartcontract/contracts/Publisher.sol",
  "compiler": {
    "name": "solc",
    "version": "0.4.18+commit.9cf6e910.Emscripten.clang"
  },
  "schemaVersion": "1.0.1",
  "updatedAt": "2017-11-27T11:30:43.784Z"
}